:100000000C9450030C9478030C9478030C947803AC
:100010000C9478030C9478030C9478030C94780374
:100020000C9478030C9478030C9478030C94780364
:100030000C9478030C9478030C9478030C94780354
:100040000C94C60E0C9478030C948B060C946506E5
:100050000C9478030C9478030C9478030C94780334
:100060000C94ED0A0C94780307634236B79BD8A72B
:100070001A39685618AEBAAB558C1D3CB7CC5763CD
:10008000BD6DEDFD753EF6177231BF000000803F7B
:1000900033339340F6289440A470954066669640AA
:1000A000295C9740D7A398409A99994048E19A4093
:1000B0000AD79B40B81E9D407B149E40295C9F4000
:1000C000EC51A0409A99A1405C8FA2400AD7A3406E
:1000D000B81EA5407B14A640295CA740D7A3A84022
:1000E0009A99A94048E1AA40F628AC40A470AD40D6
:1000F0006666AE4014AEAF40C3F5B040713DB2404D
:100100001F85B340CDCCB4407B14B640295CB740CA
:10011000D7A3B84085EBB9403333BB40E17ABC404C
:100120008FC2BD403D0ABF40EC51C04085EBC1408D
:100130003333C340E17AC4408FC2C540295CC74015
:10014000D7A3C84085EBC9401F85CB40CDCCCC4060
:100150006666CE4014AECF40C3F5D0405C8FD2402F
:10016000F628D440A470D5403D0AD740EC51D84081
:1001700085EBD9401F85DB40B81EDD406666DE405A
:100180000000E0409A99E1403333E340E17AE440F3
:100190007B14E64014AEE740AE47E94048E1EA4050
:1001A000E17AEC407B14EE4014AEEF40AE47F140F4
:1001B0003333F340CDCCF4406666F6400000F8409F
:1001C0009A99F9401F85FB40B81EFD4052B8FE4089
:1001D000EC510041B81E01417B14024148E102414B
:1001E0000AD70341D7A304419A990541666606419F
:1001F000295C0741EC510841B81E09417B140A41B2
:100200003D0A0B4100000C41C3F50C4185EB0D414B
:1002100048E10E410AD70F41CDCC10418FC21141A8
:1002200052B8124114AE1341D7A314419A99154103
:100230005C8F16411F851741D7A318419A99194120
:1002400052B81A4114AE1B41D7A31C418FC21D41A5
:1002500052B81E410AD71F41CDCC204185EB214128
:100260003D0A2341F6282441B81E2541713D26410F
:10027000295C2741E17A28419A99294152B82A41BB
:1002800014AE2B41CDCC2C417B142E4133332F4166
:10029000EC513041A47031415C8F32410AD7334177
:1002A000C3F534417B143641295C3741E17A38414A
:1002B0008FC2394148E13A41F6283C41AE473D41C1
:1002C0005C8F3E410AD73F41C3F54041713D4241F9
:1002D0001F854341CDCC44417B144641295C4741B5
:1002E000D7A3484185EB494133334B41E17A4C4137
:1002F0008FC24D4133334F41E17A50418FC251415A
:1003000033335341E17A544185EB554133335741FF
:10031000D7A3584185EB5941295C5B41CDCC5C4169
:10032000713D5E411F855F41C3F560416666624174
:100330000AD76341AE47654152B86641F628684125
:100340008FC2694133336B41D7A36C417B146E413B
:1003500014AE6F41B81E714152B8724133337341CC
:100360008FC2754133337741CDCC784166667A418F
:1003700000007C419A997D4133337F41666680411C
:100380003333814100008241CDCC82419A9983412F
:1003900066668441AE4785417B14864148E18641CB
:1003A00014AE87415C8F8841A470894100008A4166
:1003B000B81E8B4100008C4148E18C418FC28D41B9
:1003C000D7A38E411F858F4166669041AE4791410C
:1003D000F62892413D0A93410000944148E194413E
:1003E0008FC2954152B896419A9997415C8F984136
:1003F0001F859941E17A9A41295C9B41EC519C41CE
:100400000000984100008442713D9E4133339F417A
:10041000F628A041B81EA141F628A241B81EA3416A
:100420007B14A441B81EA5417B14A641AE47A74149
:10043000F628A841B81EA941F628AA41AE47AB410B
:10044000713DAC41AE47AD41EC51AE41295CAF418D
:100450006666B041A470B1415C8FB2419A99B341D4
:1004600052B8B4418FC2B54148E1B6410000B8412D
:10047000B81EB94185EBB941AE47BB416666BC4188
:100480001F85BD41D7A3BE410AD7BF41C3F5C041B7
:10049000EC51C241AE47C3416666C4419A99C54119
:1004A00052B8C64185EBC741B81EC941EC51CA419B
:1004B0001F85CB4152B8CC4185EBCD41B81ECF4111
:1004C0006666D0419A99D141CDCCD2417B14D441BA
:1004D000A470D5415C8FD6410AD7D741B81ED94107
:1004E000EC51DA4114AEDB41C3F5DC41713DDE4134
:1004F0001F85DF41CDCCE041F628E241A470E34105
:10050000CDCCE441F628E641A470E741CDCCE841EA
:10051000F628EA411F85EB4148E1EC41713DEE418F
:1005200014AEEF413D0AF141E17AF2410AD7F341BD
:100530003333F541D7A3F6417B14F8411F85F941C8
:10054000C3F5FA41005EBCE2613FDD83C29C7E20C0
:10055000A3FD1F419DC3217FFCA2401E5F01E3BD9F
:100560003E6082DC237D9FC1421CFEA0E1BF5D0393
:1005700080DE3C62BEE0025CDF81633D7C22C09E87
:100580001D43A1FF4618FAA427799BC584DA386673
:10059000E5BB5907DB856739BAE406581947A5FB5F
:1005A0007826C49A653BD987045AB8E6A7F91B4553
:1005B000C6987A24F8A6441A99C7257B3A6486D847
:1005C0005B05E7B98CD2306EEDB3510F4E10F2AC33
:1005D0002F7193CD114FADF3702ECC92D38D6F311F
:1005E000B2EC0E50AFF1134DCE90722C6D33D18F13
:1005F0000C52B0EE326C8ED0530DEFB1F0AE4C1207
:1006000091CF2D73CA947628ABF517490856B4EAF2
:100610006937D58B5709EBB536688AD495CB2977DE
:10062000F4AA4816E9B7550B88D6346A2B7597C9D2
:100630004A14F6A8742AC896154BA9F7B6E80A54C6
:10064000D7896B3500000000230026002900000038
:100650000000240027002A000000000025002800D8
:100660002B00040404040404040402020202020233
:100670000303030303030102040810204080010266
:1006800004081020010204081020000000080002E5
:1006900001000003040700000000000000005113E7
:1006A00011241FBECFEFD8E0DEBFCDBF11E0A0E028
:1006B000B1E0E6EBF0E302C005900D92AE3FB1076A
:1006C000D9F723E0AEEFB1E001C01D92AA34B20722
:1006D000E1F713E0C0E5D3E004C02197FE010E94DA
:1006E0002117CF34D107C9F70E94100F0C94591865
:1006F0000C940000CF92DF92EF92FF920F931F9322
:10070000CF93DF936C017A018B01C0E0D0E0CE156E
:10071000DF0589F0D8016D918D01D601ED91FC9135
:100720000190F081E02DC6010995892B11F47E011D
:1007300002C02196ECCFC701DF91CF911F910F919D
:10074000FF90EF90DF90CF900895FC01538D448D82
:10075000252F30E0842F90E0821B930B541710F06C
:10076000CF96089501970895FC01918D828D981779
:1007700061F0828DDF01A80FB11D5D968C91928D85
:100780009F5F9F73928F90E008958FEF9FEF089582
:10079000FC01918D828D981731F0828DE80FF11D4B
:1007A000858D90E008958FEF9FEF0895FC01918D66
:1007B000228D892F90E0805C9F4F821B91098F735F
:1007C0009927089585E792E00E94D60321E0892BBE
:1007D00009F420E0822F0895FC01848DDF01A80F29
:1007E000B11DA35ABF4F2C91848D90E001968F7359
:1007F0009927848FA689B7892C93A089B1898C9178
:1008000080648C93938D848D981306C00288F3893D
:10081000E02D80818F7D80830895EF92FF920F936A
:100820001F93CF93DF93EC0181E0888F9B8D8C8D9C
:10083000981305C0E889F989808185FD24C0F62ECA
:100840000B8D10E00F5F1F4F0F731127E02E8C8D63
:10085000E8120CC00FB607FCFACFE889F98980814D
:1008600085FFF5CFCE010E94EC03F1CF8B8DFE0109
:10087000E80FF11DE35AFF4FF0820B8FEA89FB89E5
:100880008081806207C0EE89FF896083E889F989E9
:1008900080818064808381E090E0DF91CF911F911F
:1008A0000F91FF90EF900895CF93DF93EC01888D27
:1008B0008823C9F0EA89FB89808185FD05C0A88964
:1008C000B9898C9186FD0FC00FB607FCF5CF8081EA
:1008D00085FFF2CFA889B9898C9185FFEDCFCE0134
:1008E0000E94EC03E7CFDF91CF91089580E090E084
:1008F000892B29F00E94E20381110C9400000895D5
:10090000089508958FEF9FEF08958FEF9FEF08955B
:1009100080916C0290E091958195910908950895D8
:1009200080E090E0089585ED8093BC008091BC004C
:1009300084FDFCCF10924602089540912002262F9C
:1009400030E0240F311D21323105DCF420914602C4
:100950002430C9F4FC0180E090E0861758F430910F
:1009600020022191DC01A250BE4FA30FB11D2C9398
:100970000196F3CF80912002680F6093200280E0FF
:10098000089581E0089582E00895CF93DF9300D029
:10099000CDB7DEB7CB01642F49835A830E949D04F3
:1009A0004981842F5A81952F0F900F90DF91CF911D
:1009B0000895CF93DF931F92CDB7DEB7698361E0CF
:1009C000CE0101960E949D0481E090E00F90DF919E
:1009D000CF910895CF92DF92EF92FF92CF93DF9362
:1009E000EC01CA80DB80EC80FD80DA01C901C2160F
:1009F000D306E406F50610F4D701C60169017A01B1
:100A0000C81AD90AEA0AFB0A8E819F81A0E0B0E0E9
:100A1000C816D906EA06FB0668F069017A01E88182
:100A2000F9810190F081E02DCE010995CA82DB8227
:100A3000EC82FD82DF91CF91FF90EF90DF90CF901D
:100A400008950895CF93DF93EC0160E08E810E94BA
:100A50004E0E61E08E810E944E0E60E08E810E94FB
:100A60004E0E8BE891E00197F1F7DF91CF91089559
:100A70008F929F92AF92BF92CF92DF92EF92FF92AE
:100A80006B017C012EEC38E04CE851E40E945716D3
:100A90004B015C0123E333E341E753E4C701B601B3
:100AA0000E94B0139B01AC01C501B4010E94211446
:100AB0006B017C0120E030E0A9010E94DC151816D2
:100AC00024F0F7FAF094F7F8F094C701B6010E9409
:100AD0009B1423E536E943EC50E40E945716FF903F
:100AE000EF90DF90CF90BF90AF909F908F90089540
:100AF000DC01ED91FC910190F081E02D09946115EC
:100B0000710579F0FB0101900020E9F73197AF0101
:100B1000461B570BDC01ED91FC910280F381E02D27
:100B2000099480E090E008954F925F926F927F92D7
:100B3000EF92FF920F931F93CF93DF93CDB7DEB762
:100B4000A1970FB6F894DEBF0FBECDBF7C01FA01AE
:100B5000CB0119A2223008F42AE08E010F5D1F4F4D
:100B6000422E512C612C712CBF01A30192010E94D5
:100B7000EB16F901CA01015011096A3014F4605DE5
:100B800001C0695CD8016C93232B242B252B61F7C2
:100B9000B801C7010E947F05A1960FB6F894DEBF89
:100BA0000FBECDBFDF91CF911F910F91FF90EF90BE
:100BB0007F906F905F904F9008950F931F93CF9306
:100BC000DF93EC010E947F058C016AE671E0CE01A3
:100BD0000E947F05800F911FDF91CF911F910F9190
:100BE00008950C947F05CF93DF93EB01CA01B901FF
:100BF00028EE33E040E050E00E94EB16BA01A90174
:100C00002AE085E792E00E9494056DE671E085E7B1
:100C100092E00E94F1054B855C856D857E8522E022
:100C200085E792E00E94850C61E871E085E792E03B
:100C30000E94DD0565E871E085E792E00E94F1051C
:100C40004F81588569857A8522E085E792E00E9488
:100C5000850C61E871E085E792E00E94DD0569E9B5
:100C600071E085E792E00E94F1054F855889698916
:100C70007A8922E085E792E00E94850C64ED71E0BC
:100C800085E792E00E94DD0569EA71E085E792E080
:100C90000E94F1054B895C896D897E8922E085E798
:100CA00092E00E94850C64ED71E085E792E00E947D
:100CB000DD056BE671E085E792E00E94F10585E7CE
:100CC00092E0DF91CF910C9454041F920F920FB6D3
:100CD0000F9211242F933F934F935F936F937F93C2
:100CE0008F939F93AF93BF93EF93FF9385E792E02A
:100CF0000E94EC03FF91EF91BF91AF919F918F9173
:100D00007F916F915F914F913F912F910F900FBE07
:100D10000F901F9018951F920F920FB60F921124EB
:100D20002F938F939F93EF93FF93E0918502F09120
:100D300086028081E0918B02F0918C0282FD12C0CC
:100D4000908180918E028F5F8F7320918F02821726
:100D500051F0E0918E02F0E0EB58FD4F958F8093BB
:100D60008E0201C08081FF91EF919F918F912F9111
:100D70000F900FBE0F901F901895CF92DF92EF92B9
:100D8000FF920F931F93CF93DF937C016C0187E059
:100D9000C80ED11CC0E0D0E0062F10E0B8010C2E28
:100DA00002C0759567950A94E2F76170F60181912A
:100DB0006F010E944E0E2196C430D10579F7C7010C
:100DC000DF91CF911F910F91FF90EF90DF90CF9027
:100DD0000C942205CF92DF92EF92FF920F931F9314
:100DE000CF93DF93EC01F62E642F8C810E944E0E80
:100DF0008D818F3F19F060E00E944E0E8F850F2D80
:100E000010E084FF25C06E0187E0C80ED11CE12CE4
:100E1000F12CB8010E2C02C0759567950A94E2F783
:100E20006170F60181916F010E944E0EFFEFEF1A83
:100E3000FF0A88E0E816F10461F7CE01DF91CF9157
:100E40001F910F91FF90EF90DF90CF900C942205AF
:100E5000B80184E0759567958A95E1F7CE010E9407
:100E6000BD066F2DCE01DF91CF911F910F91FF90A5
:100E7000EF90DF90CF900C94BD0641E00E94EA060F
:100E800081E090E0089540E00C94EA060F931F93F0
:100E9000CF93DF93EC018B01E885F98591E083899D
:100EA000811190E09195DF01A90FB11D54966C91CD
:100EB0006068CF010E9443076AEB71E088859985DD
:100EC0000E94F105F801478150856185728522E015
:100ED000888599850E94850C62EC71E088859985EA
:100EE0000E94DD05E885F9859389923010F49150D0
:100EF00001C091E0DF01A90FB11D54966C916068AB
:100F0000CF010E94430768EC71E0888599850E94B3
:100F1000F105F801478550896189728922E0888549
:100F200099850E94850C63ED71E088859985DF9134
:100F3000CF911F910F910C94DD054F925F926F92AC
:100F40007F928F929F92AF92BF92CF92DF92EF9259
:100F5000FF920F931F93FB01C080D180E280F3804A
:100F600029013A014C185D086E087F08858096803B
:100F7000A12CB12CFC01C280D380E480F580481400
:100F800059046A047B0448F549015A01C216D30684
:100F9000E406F50610F44601570189019A01081983
:100FA00019092A093B09FC01C284D384E12CF12CE4
:100FB0000C151D052E053F0518F11F910F91FF908F
:100FC000EF90DF90CF90BF90AF909F908F907F90E9
:100FD0006F905F904F900C94460749015A01C216DA
:100FE000D306E406F50610F44601570189019A017B
:100FF000081919092A093B09FC01C680D780D6CFF8
:101000001F910F91FF90EF90DF90CF90BF90AF9026
:101010009F908F907F906F905F904F900895DC012C
:10102000E0E0615038F08D91E827F0E0EC5BFA4F9A
:10103000E491F7CF8E2F0895CF92DF92EF92FF9237
:101040000F931F93CF93DF931F92CDB7DEB78C0121
:10105000F62E65E579830E94670DCF2C7981D72E16
:10106000760188E0E80EF11CF60161916F01C8017C
:101070000E94670DCE14DF04B9F70F90DF91CF9176
:101080001F910F91FF90EF90DF90CF900895FC019A
:1010900090810180F281E02DF8948181892B8183F8
:1010A0002281892F809528232283A7E0B0E0119721
:1010B000F1F7218182238183A3E2B0E01197F1F758
:1010C00080817894EFECF0E03197F1F7982381E09C
:1010D00009F480E00895FC0190810180F281E02D07
:1010E000892F809560FF12C0F89422818223828329
:1010F0008181892B8183A3E2B0E01197F1F782818E
:10110000982B9283789487ED90E011C0F894228117
:10111000822382838181892B8183AFEFB0E0119795
:10112000F1F78281982B928378948FE090E0019779
:10113000F1F70895FC0190810180F281E02DF8948F
:101140008181292F20958223818378948DE743E044
:1011500050E0815021F1DA011197F1F73081392304
:10116000C1F3F8948281822382838181892B8183D8
:101170007894ABE7B7E01197F1F7F89481812823D1
:101180002183A3E1B1E01197F1F78081982381E0F9
:1011900009F080E07894E3E6F6E03197F1F70895FE
:1011A0006F927F928F929F92AF92BF92CF92DF9277
:1011B000EF92FF920F931F93CF93DF9300D0CDB7A1
:1011C000DEB78C017A01FC018581968169837A837F
:1011D0000E949A0869817A81882389F1F8018581C2
:1011E00096810E941C086EEBF801858196810E9411
:1011F000670D37015701F9E0AF0EB11CF80185808A
:10120000968088E0C82ED12CEE24E394F12CC40102
:101210000E9447088111FE28EE0CF1E0CF1AD10898
:10122000B1F7F301F1923F01EA15FB0539F7F80137
:10123000858196810E949A0891E0813009F090E0C2
:10124000892F0F900F90DF91CF911F910F91FF90F9
:10125000EF90DF90CF90BF90AF909F908F907F9056
:101260006F9008950F931F93CF93DF93CDB7DEB7A1
:1012700029970FB6F894DEBF0FBECDBF8B01AE012C
:101280004F5F5F4F0E94D0088823B1F168E0CE0124
:1012900001960E940F08998589132EC0298188E044
:1012A000289FA00111249A81292F30E0322F222774
:1012B000330F330F330F242B352BF801808180310E
:1012C000C9F4688570E08F81AB01481B5109CA01E0
:1012D0009695982F8827979587950E94D716CB01CA
:1012E0004097207F53E0220F331F5A95E1F7820F7A
:1012F000931F04C0C90102C080E894EE29960FB67E
:10130000F894DEBF0FBECDBFDF91CF911F910F913B
:1013100008952F923F924F925F926F927F928F9299
:101320009F92AF92BF92CF92DF92EF92FF920F9374
:101330001F93CF93DF93CDB7DEB728970FB6F894FE
:10134000DEBF0FBECDBF8C011B01BC016C5E7F4FA9
:10135000FC01828593850E9432098138F4EE9F0753
:101360006CF0BC01990F880B990B0E94051520E0C9
:1013700030E040E05CE30E94571604C060E070E09B
:101380008EEF92ECF1016783708781879287B801B5
:10139000645F7F4FF801828593850E94320981380E
:1013A000F4EE9F077CF0BC01990F880B990B0E940B
:1013B000051520E030E040E05CE30E9457166B0129
:1013C0007C0106C0C12CD12C3EEFE32E32ECF32E73
:1013D000F101C386D486E586F68687809084A18451
:1013E000B284C701B6010E94380569837A838B8372
:1013F0009C83A7019601C501B4010E94AF132B0184
:101400003C0126E731E74BE45FE30E9457166D830A
:101410007E838F83988729E93BEB46E95AE3C7012E
:10142000B6010E94571620E030E040E85FE30E94DA
:10143000B0139B01AC016D817E818F8198850E94E4
:1014400057169B01AC0169817A818B819C810E9436
:10145000AF136D837E838F839887C501B4010E948B
:10146000380569837A838B839C8320E030E048ECE5
:1014700052E46D817E818F8198850E945716298163
:101480003A814B815C810E942114F1016787708B46
:10149000818B928B20E030E040E251E4C701B6013D
:1014A0000E9457160E94CD14660F771F660F771F94
:1014B0008B0100571F4F2AE633E540E55AE3C3018D
:1014C000B2010E94571620E030E04AE754E40E943F
:1014D00057169B01AC01F801608171818281938173
:1014E0000E94AF136B017C0120E030E040E251E448
:1014F000C501B4010E9457160E94CD14CB01880F7C
:10150000991F880F991FFC01E057FF4F20813181FF
:1015100042815381C701B6010E94211420E030E0CE
:1015200048EC52E40E945716F101638B748B858B53
:10153000968B28960FB6F894DEBF0FBECDBFDF9115
:10154000CF911F910F91FF90EF90DF90CF90BF90C0
:10155000AF909F908F907F906F905F904F903F9053
:101560002F900895CF93DF93CDB7DEB729970FB6AD
:10157000F894DEBF0FBECDBFFB012081203119F1F1
:10158000AE014F5F5F4F0E94D008882379F068E07A
:10159000CE0101960E940F089985891307C008C0E3
:1015A000803458F08F3569F08F3769F080E00CC0D7
:1015B0008D818F33A9F78AE007C08F31B9F789E0B1
:1015C00003C08BE001C08CE029960FB6F894DEBF13
:1015D0000FBECDBFDF91CF9108951F920F920FB62E
:1015E0000F9211242F933F934F935F936F937F93A9
:1015F0008F939F93AF93BF93EF93FF938091B90025
:10160000887F803609F49CC068F5883209F45BC095
:1016100090F4803109F454C038F4882309F4F6C0FA
:10162000883009F44DC0F6C0883109F44CC08032CE
:1016300009F45DC0EFC0803409F468C048F4803319
:1016400009F455C0883309F0E5C080934502D8C03D
:10165000803509F44FC0883509F45DC0883409F03D
:10166000D9C0D6C0883909F4C7C0A8F4883709F4AE
:1016700067C038F4883609F463C0803709F460C065
:10168000C9C0883809F4B8C0803909F45FC080380F
:1016900009F0C0C05BC0803B09F486C038F4803AD2
:1016A00009F466C0883A09F47FC0B4C0803C09F4EC
:1016B000A7C0883C09F4A4C0883B09F48AC0AAC02A
:1016C00080916B0210C090916A0280916902981714
:1016D00070F5E0916A0281E08E0F80936A02F0E07B
:1016E000E75BFD4F80818093BB0085EC86C08093D3
:1016F00045028EC0E0916A0281E08E0F80936A02FB
:101700008091BB00F0E0E75BFD4F808390916A021F
:10171000809169026EC0E0916A0281E08E0F809331
:101720006A028091BB00F0E0E75BFD4F808380910F
:10173000480281116DC081E08093470284EA61C054
:1017400083E08093460210924402CFCF80914402FE
:10175000803208F051C0E091440281E08E0F809306
:1017600044028091BB00F0E0EC5DFD4F8083BDCF73
:1017700085EC8093BC001092460280914402803236
:1017800030F4E0914402F0E0EC5DFD4F1082609196
:10179000440270E0E0912202F091230284E292E0A0
:1017A00009951092440236C084E08093460210925C
:1017B000210210922002E0911E02F0911F02099571
:1017C00080912002811105C081E080932002109257
:1017D000FE01E091210281E08E0F80932102F0E072
:1017E000E250FE4F80818093BB0090912102809156
:1017F0002002981708F479CF85E88093BC000AC0CE
:1018000085EC8093BC001092460204C01092450201
:101810000E949304FF91EF91BF91AF919F918F919F
:101820007F916F915F914F913F912F910F900FBEDC
:101830000F901F901895CF92DF92EF92FF920F9327
:101840001F93CF93DF93EC016A017B012A8530E07F
:10185000F901E657F94F8491F901EA58F94F0491DB
:10186000F901EE59F94F14911123A1F081110E9451
:10187000250EE12FF0E0EE0FFF1FEC5BF94FA59175
:10188000B491EC91E02331E020E009F430E0832FC3
:10189000922F02C080E090E0182F11702B85222338
:1018A00019F0892B39F11B868985181731F00E94B0
:1018B000BA0E688379838A839B8388819981AA8100
:1018C000BB810097A105B105A1F0C81AD90AEA0A9F
:1018D000FB0A8C819D81AE81BF818C159D05AE0573
:1018E000BF0538F481E081278887188219821A821F
:1018F0001B821987DF91CF911F910F91FF90EF907D
:10190000DF90CF9008950E9454184F925F926F928B
:101910007F928F929F92AF92BF92CF92DF92EF927F
:10192000FF92CF93DF93EC016A017B01B22E9A0103
:10193000AB01C701B6010E94C416882319F061EFFC
:1019400071E027C026013701E89477F82FEF3FEFC9
:101950004FE75FE7C301B2010E94C41681110DC0B9
:101960002FEF3FEF4FE75FE7C301B2010E941C1466
:1019700018161CF465EF71E00CC02FEF3FEF4FE736
:101980005FE4C701B6010E94DC1518169CF469EFEC
:1019900071E0CE01DF91CF91FF90EF90DF90CF907B
:1019A000BF90AF909F908F907F906F905F904F907F
:1019B0000C947F052FEF3FEF4FE75FECC701B601B7
:1019C0000E941C1487FDE3CF20E030E0A901C7018D
:1019D000B6010E941C1487FF0AC06DE2CE010E946E
:1019E00078054C01F7FAF094F7F8F09402C0812CD6
:1019F000912CA12C60E070E080E09FE3AB1441F0FB
:101A000020E030E040E251E40E942114A394F6CF9C
:101A10009B01AC01C701B6010E94B0132B013C0130
:101A20000E94D4146B017C010E9403159B01AC0140
:101A3000C301B2010E94AF132B013C012AE0B701A0
:101A4000A601CE010E9494057C01E80CF91CBB2084
:101A500031F06EE2CE010E947805E80EF91EDB2C13
:101A6000DD2029F120E030E040E251E4C301B20181
:101A70000E9457162B013C010E94D4144B01A12C4B
:101A8000B12C2AE0B501A401CE010E949405E80E14
:101A9000F91EC501B4010E9403159B01AC01C301ED
:101AA000B2010E94AF132B013C01DA94D9CFC701D8
:101AB000DF91CF91FF90EF90DF90CF90BF90AF90EC
:101AC0009F908F907F906F905F904F900895EF92CE
:101AD000FF920F931F93CF93DF93EC01E62E08E064
:101AE00010E0FF24F39461E08F2D8E2109F460E073
:101AF000CE010E946B08FF0C01501109A1F7F89468
:101B0000E981FA8191818881809589238183E981A6
:101B1000FA81928188818095892382837894DF91EC
:101B2000CF911F910F91FF90EF900895AF92BF92C8
:101B3000CF92DF92EF92FF920F931F93CF93DF9399
:101B40001F92CDB7DEB75C01D62EE72EFC0185854E
:101B5000811105C0C5010E949A08811106C0F501D6
:101B600013861586148680E064C060EFC5010E946C
:101B7000670D01E0F12CC12C11E0C5010E9447085E
:101B8000682FC50169830E9447086981613019F493
:101B90008130B9F433C04F2D50E068131BC0F501FC
:101BA0008385181730F4E40FF51F8381802349F4EF
:101BB00002C0181731F060E0193058F4F5011487AD
:101BC00008C0F501EF0DF11D8381802B838361E057
:101BD00009C0C12EF501E40FF51F9381802F809578
:101BE00089238383C5010E946B081F5F000F11F4D6
:101BF000F39401E0F7E0FF1508F0BFCF113408F4CB
:101C0000AECFF501C386C11002C081E08587F50122
:101C10008381882309F4A3CFD5011396ED2DFE2DE2
:101C20009501255F3F4F8D918193A217B307D9F797
:101C300081E00F90DF91CF911F910F91FF90EF9076
:101C4000DF90CF90BF90AF900895833081F028F45B
:101C5000813099F08230A1F008958730A9F0883062
:101C6000B9F08430D1F4809180008F7D03C08091E1
:101C700080008F7780938000089584B58F7702C0AD
:101C800084B58F7D84BD08958091B0008F7703C0A7
:101C90008091B0008F7D8093B00008951F93CF9303
:101CA000DF93282F30E0F901E657F94F8491F901CD
:101CB000EA58F94FD491F901EE59F94FC491CC2368
:101CC000C9F0162F81110E94250EEC2FF0E0EE0FC7
:101CD000FF1FE85AF94FA591B4918FB7F8941111ED
:101CE00005C09C91ED2FE095E92302C0EC91ED2B0E
:101CF000EC938FBFDF91CF911F910895CF93DF9326
:101D000090E0FC01EA58F94F2491FC01EE59F94F9B
:101D10008491882361F190E0880F991FFC01E25BB8
:101D2000F94FC591D491FC01E85AF94FA591B491AE
:101D3000611109C09FB7F894888120958223888318
:101D4000EC912E230BC0623061F49FB7F894388178
:101D5000822F809583238883EC912E2B2C939FBF19
:101D600006C08FB7F894E8812E2B28838FBFDF91B0
:101D7000CF9108952FB7F89460913603709137038F
:101D800080913803909139032FBF08951F920F92CD
:101D90000FB60F9211242F933F938F939F93AF937E
:101DA000BF938091360390913703A0913803B0918F
:101DB00039033091350323E0230F2D3720F40196AA
:101DC000A11DB11D05C026E8230F0296A11DB11D5E
:101DD000209335038093360390933703A093380301
:101DE000B09339038091310390913203A091330372
:101DF000B09134030196A11DB11D809331039093DE
:101E00003203A0933303B0933403BF91AF919F91FA
:101E10008F913F912F910F900FBE0F901F901895AB
:101E2000CF93DF93CDB7DEB762970FB6F894DEBFDE
:101E30000FBECDBF789484B5826084BD84B58160C7
:101E400084BD85B5826085BD85B5816085BD809185
:101E50006E00816080936E001092810080918100FD
:101E600082608093810080918100816080938100F5
:101E7000809180008160809380008091B1008460B7
:101E80008093B1008091B00081608093B000809118
:101E90007A00846080937A0080917A0082608093D7
:101EA0007A0080917A00816080937A0080917A0034
:101EB000806880937A001092C100E0918502F091D1
:101EC000860282E08083E0918102F091820210829A
:101ED000E0918302F09184028FEC808310928D0256
:101EE000E0918902F0918A0286E08083E091870286
:101EF000F0918802808180618083E0918702F09177
:101F00008802808188608083E0918702F091880256
:101F1000808180688083E0918702F09188028081CF
:101F20008F7D808381E090E00E94991390E09093F0
:101F30002A03809329038CE190E00E9427177C01FB
:101F4000DC0112961D921D921D921C92159788E835
:101F500093E117969C938E9316978AE191E01196E0
:101F60009C938E9388E0E6E0F1E01C9601900D9240
:101F70008A95E1F788E0EEE0F1E0D7015496019010
:101F80000D928A95E1F78EE090E00E9427176C0190
:101F900060E08FE00E947E0EE5E8F6E0E491D60175
:101FA000EC93E1E7F6E0E491F0E0EE0FFF1FEC5B6D
:101FB000F94F85919491F60192838183138615865A
:101FC00014865601FBE0AF0EB11C460183E0880E7B
:101FD000911CF5011292E815F905E1F7D701199660
:101FE000DC92CE92189783E190E00E9427178C0133
:101FF00080E894E0F801928B818BD682C5821482AE
:10200000108289E0818381E082838383D7011B96DC
:102010001C930E931A97F50112925F01E815F905CA
:10202000D1F7DD24D394BE01665F7F4FD8011596AA
:102030008D919C9116970E94960D882309F455C0A6
:1020400067E0CE010A960E940F0899898913EBCFA9
:10205000D8018C91811126C015968D919C9116976F
:102060000E949A08BE01665F7F4FF80185819681C4
:102070000E941C0864EBD80115968D919C911697CF
:102080000E94670DF801858196810E944708C82E3D
:10209000D80115968D919C9116970E949A08CC2094
:1020A00009F4FCC2AE014F5F5F4FBE01665F7F4F18
:1020B000C8010E94D008F801C180BE01665F7F4F51
:1020C000C8010E94B20A8C1520F4D80111968C9197
:1020D00006C0BE01665F7F4FC8010E94B20AF801C8
:1020E000818384818F5F84839ECF6AE671E085E778
:1020F00092E00E947F05812C912C540183946E0103
:10210000B9E0CB0ED11C840101501109BE016F5FF3
:102110007F4FD70118968D919C9119970E94960D2B
:10212000882379F12AE0B501A40185E792E00E94B5
:1021300094056AED71E085E792E00E94F1058E0159
:102140000F5F1F4F60E285E792E00E947805F8017B
:1021500041918F0150E060E070E020E185E792E07E
:102160000E9494050C151D0569F76AE671E085E784
:1021700092E00E947F05FFEF8F1A9F0AAF0ABF0A05
:10218000C2CF012B31F46EED71E085E792E00E9441
:10219000DD05F0927402E09273028CE090E00E9400
:1021A00027177C01FC01128213821482158284ECB1
:1021B00099E0978386838EE291E09183808384E621
:1021C00090E09387828788E190E00E9427178C0136
:1021D000DC0113961C921E92129782E291E01196F6
:1021E0009C938E9388E014968C9314978FEF15969A
:1021F0008C93159789E016968C93169784E0179622
:102200008C93179785E018968C93189786E019960B
:102210008C93199787E01A968C931A971B961C92A9
:102220001B971C961C921C971D961C921D971E9620
:102230001C921E971F961C921F9781E053968C93B9
:10224000539754961C92549780E455968C935597C7
:1022500080E156968C93569780E557968C9361E073
:1022600088E00E947E0EF80185818F3F19F061E0C1
:102270000E947E0E61E0D80116968C910E947E0E1F
:102280005801B7E0AB0EB11CC12CD12CD8011F9660
:102290008C9184FD03C084E090E002C088E090E06F
:1022A000C816D90654F461E0F50181915F010E94DE
:1022B0007E0EFFEFCF1ADF0AE9CF8BE39DE0019797
:1022C000F1F760E0F80184810E944E0E60E0D801D1
:1022D00016968C910E944E0EF80185818F3F19F061
:1022E00060E00E944E0ED8011F966C9164FD1FC0E5
:1022F00063E0C8010E94BD064BE4C42E46E4D42E20
:10230000C6010197F1F763E0C8010E94BD06C6014E
:102310000197F1F763E0C8010E94BD0683E592E0F2
:102320000197F1F762E0C8010E94BD0619C0606222
:10233000C8010E9443078BE496E40197F1F7F80186
:1023400067856062C8010E94430783E592E00197B8
:10235000F1F7D8011F966C916062C8010E94430793
:10236000F80167856062C8010E94430784E0D801D4
:1023700050968C936CE0C8010E94430761E0C8014D
:102380000E9443078BE39FE10197F1F782E0F80198
:10239000818B66E0C8010E944307D70119961C9300
:1023A0000E931897F0927002E0926F0288E090E02E
:1023B0000E942717FC01128213821482158288E87A
:1023C00093E19783868386E391E091838083F09302
:1023D0006E02E0936D0289E090E00E9427178C0165
:1023E0008DE0F82EF801F0829EE0A92EA2822FE067
:1023F000B22EB18262E08DE00E947E0E62E0D801D2
:1024000012968C910E947E0E62E0F80181810E94FA
:102410007E0E8CE090E00E942717FC01F28610826D
:1024200011821282138232E3C32ED12CE12CF12CC3
:10243000C482D582E682F782108611861386D8017F
:1024400014969C938E9313978CE090E00E9427172C
:10245000FC01A2861082118212821382C482D5826C
:10246000E682F782108611861386D80116969C9311
:102470008E9315978CE090E00E942717FC01B2869E
:102480001082118212821382C482D582E682F78280
:10249000108611861386D80118969C938E931797F1
:1024A000109372020093710211E0E0917302F091B7
:1024B00074020190F081E02DE280F3800E94BA0E58
:1024C0009B01AC0162E173E0809173029091740210
:1024D000F70109950E94BA0E6B017C01A090710270
:1024E000B0907202AB01BC01D50113968D919C9105
:1024F00014970E941B0CB701A601F50185819681F6
:102500000E941B0CB701A601D50117968D919C91D5
:1025100018970E941B0CD5011396ED91FC9114970E
:102520008085882361F013871086C0921203D092B1
:102530001303E0921403F092150310931603D501D0
:102540001796ED91FC91189780858823E1F0138709
:1025500010868091290390912A0320912D033091B8
:102560002E03281739072CF4019790932A038093A0
:102570002903C0921203D0921303E0921403F09245
:10258000150310931603D5011596ED91FC9116973E
:1025900080858823E1F0138710868091290390912C
:1025A0002A0320912B0330912C03821793072CF4DC
:1025B000019690932A0380932903C0921203D0922C
:1025C0001303E0921403F092150310931603E090A6
:1025D0006F02F0907002D701ED91FC91C280D38020
:1025E0000E94BA0E9B01AC0162E173E0C701F601E3
:1025F00009950E94BA0E209116032223D1F1C090B2
:102600001203D0901303E0901403F0901503AB0174
:10261000BC014C195D096E097F09809117039091E7
:102620001803A0E0B0E084179507A607B70708F5E0
:102630006091290380912A0369838A8381E090E075
:102640006A8B0E9499136A89681721F081E090E0F3
:102650000E94A1136A8182E090E06A8B0E94991324
:102660006A89681721F082E090E00E94A11310921D
:102670001603E0906D02F0906E02D701ED91FC918F
:10268000C280D3800E94BA0E9B01AC0162E173E06C
:10269000C701F60109950E94760407CFD801DC92A4
:1026A00001CDE5E7F2E01382128288EE93E0A0E02C
:1026B000B0E084839583A683B7832EE331E0318332
:1026C000208325EC30E03587248724EC30E0378701
:1026D000268720EC30E0318B208B21EC30E0338BEF
:1026E000228B22EC30E0358B248B26EC30E0378BCC
:1026F000268B118E128E138E148EEAE3F3E0138272
:10270000128284839583A683B78380E591E09183C9
:102710008083E2E1F3E0108211821282138214823C
:102720008CED95E09683858381E090E0968F858F90
:102730000895F999FECF92BD81BDF89A992780B589
:102740000895262FF999FECF1FBA92BD81BD20BDF5
:102750000FB6F894FA9AF99A0FBE01960895505858
:10276000BB27AA270E94C7130C94A2150E94941598
:1027700038F00E949B1520F039F49F3F19F426F49D
:102780000C946A150EF4E095E7FB0C946415E92FA0
:102790000E94B31558F3BA176207730784079507A9
:1027A00020F079F4A6F50C94D5150EF4E0950B2ED7
:1027B000BA2FA02D0B01B90190010C01CA01A00193
:1027C0001124FF27591B99F0593F50F4503E68F1EE
:1027D0001A16F040A22F232F342F4427585FF3CF2F
:1027E000469537952795A795F0405395C9F77EF400
:1027F0001F16BA0B620B730B840BBAF09150A1F049
:10280000FF0FBB1F661F771F881FC2F70EC0BA0FCE
:10281000621F731F841F48F4879577956795B79556
:10282000F7959E3F08F0B0CF9395880F08F0992751
:10283000EE0F9795879508950E94401508F481E062
:1028400008950E9435140C94A2150E949B1558F00F
:102850000E94941540F029F45F3F29F00C94641510
:1028600051110C94D6150C946A150E94B31568F397
:102870009923B1F3552391F3951B550BBB27AA2739
:1028800062177307840738F09F5F5F4F220F331F73
:10289000441FAA1FA9F335D00E2E3AF0E0E832D03B
:1028A00091505040E695001CCAF72BD0FE2F29D03E
:1028B000660F771F881FBB1F261737074807AB0710
:1028C000B0E809F0BB0B802DBF01FF2793585F4F85
:1028D0003AF09E3F510578F00C9464150C94D6158F
:1028E0005F3FE4F3983ED4F3869577956795B79567
:1028F000F7959F5FC9F7880F911D9695879597F972
:102900000895E1E0660F771F881FBB1F62177307EA
:102910008407BA0720F0621B730B840BBA0BEE1FFF
:1029200088F7E095089529F416F00C9464150C943A
:10293000D5150C946A150E94BB15A8F39638A0F71C
:1029400007F80F92E8942BE33AEA48EB5FE70E941E
:102950006D160F920F920F924DB75EB70F920E94B5
:102960002316E8E6F0E00E946D154F915F91EF911C
:10297000FF91E595EE1FFF1F49F0FE57E0684427E1
:10298000EE0F441FFA95E1F74195550B0E94ED15A6
:102990000F9007FE0C94E11508950E94D4146894DA
:1029A000B1110C94D61508950E94BB1588F09F575D
:1029B00098F0B92F9927B751B0F0E1F0660F771F63
:1029C000881F991F1AF0BA95C9F714C0B13091F059
:1029D0000E94D515B1E008950C94D515672F782F76
:1029E0008827B85F39F0B93FCCF38695779567951E
:1029F000B395D9F73EF490958095709561957F4F8A
:102A00008F4F9F4F0895E89409C097FB3EF490952F
:102A10008095709561957F4F8F4F9F4F9923A9F0B7
:102A2000F92F96E9BB279395F69587957795679546
:102A3000B795F111F8CFFAF4BB0F11F460FF1BC08A
:102A40006F5F7F4F8F4F9F4F16C0882311F096E91D
:102A500011C0772321F09EE8872F762F05C06623CB
:102A600071F096E8862F70E060E02AF09A95660F84
:102A7000771F881FDAF7880F9695879597F908953D
:102A8000990F0008550FAA0BE0E8FEEF161617067F
:102A9000E807F907C0F012161306E407F50798F0E7
:102AA000621B730B840B950B39F40A2661F0232B00
:102AB000242B252B21F408950A2609F4A140A6957C
:102AC0008FEF811D811D089597F99F6780E870E061
:102AD00060E008959FEF80EC0895DF93CF931F93FC
:102AE0000F93FF92EF92DF927B018C01689406C0F6
:102AF000DA2EEF010E946A16FE01E894A591259155
:102B0000359145915591A6F3EF010E94C713FE013F
:102B10009701A801DA9469F7DF90EF90FF900F9189
:102B20001F91CF91DF91089500240A94161617067D
:102B300018060906089500240A94121613061406AE
:102B400005060895092E0394000C11F4882352F011
:102B5000BB0F40F4BF2B11F460FF04C06F5F7F4FC9
:102B60008F4F9F4F089557FD9058440F551F59F0B0
:102B70005F3F71F04795880F97FB991F61F09F3F6A
:102B800079F087950895121613061406551FF2CF93
:102B90004695F1DF08C0161617061806991FF1CFE3
:102BA00086957105610508940895E894BB2766270A
:102BB0007727CB0197F908950E94401508F48FEF0D
:102BC00008959B01AC0160E070E080E89FE30C9405
:102BD00021140C9464150C94C9160E94BB15D8F3EB
:102BE0009923C9F3940F511DA3F39150504094F0D1
:102BF00059F0882332F0660F771F881F915050409C
:102C0000C1F79E3F51052CF7880F911D969587952A
:102C100097F908955F3FACF0983E9CF0BB278695EE
:102C200077956795B79508F4B1609395C1F7BB0F99
:102C300058F711F460FFE8CF6F5F7F4F8F4F9F4FC2
:102C4000E3CF0C94D615FA01DC01AA0FBB1F9B0140
:102C5000AC01BF5728F4222733274427507820C0DF
:102C6000B75190F4AB2F0024469537952795011C5A
:102C7000A395D2F3002071F0220F331F441FB395A8
:102C8000DAF30ED00C94AF1361307105A0E88A0717
:102C9000B94630F49B01AC016627772788279078E6
:102CA000309621F0208331834283538308950E941C
:102CB0006A160C94A2150E94941538F00E949B1578
:102CC00020F0952311F00C9464150C946A151124CE
:102CD0000C94D6150E94B31570F3959FC1F3950F10
:102CE00050E0551F629FF001729FBB27F00DB11D90
:102CF000639FAA27F00DB11DAA1F649F6627B00D20
:102D0000A11D661F829F2227B00DA11D621F739F08
:102D1000B00DA11D621F839FA00D611D221F749F16
:102D20003327A00D611D231F849F600D211D822F5D
:102D3000762F6A2F11249F5750409AF0F1F0882384
:102D40004AF0EE0FFF1FBB1F661F771F881F9150B1
:102D50005040A9F79E3F510580F00C9464150C94E7
:102D6000D6155F3FE4F3983ED4F386957795679543
:102D7000B795F795E7959F5FC1F7FE2B880F911DDB
:102D80009695879597F908950E944015880B990BA1
:102D900008959F3F31F0915020F48795779567957E
:102DA000B795880F911D9695879597F9089597FB8C
:102DB000072E16F4009407D077FD09D00E940D1756
:102DC00007FC05D03EF4909581959F4F089570952E
:102DD00061957F4F0895A1E21A2EAA1BBB1BFD012E
:102DE0000DC0AA1FBB1FEE1FFF1FA217B307E407EA
:102DF000F50720F0A21BB30BE40BF50B661F771F42
:102E0000881F991F1A9469F7609570958095909521
:102E10009B01AC01BD01CF010895AA1BBB1B51E171
:102E200007C0AA1FBB1FA617B70710F0A61BB70B3A
:102E3000881F991F5A95A9F780959095BC01CD01DF
:102E40000895EE0FFF1F0590F491E02D0994CF93A4
:102E5000DF938230910510F482E090E0E091480326
:102E6000F091490320E030E0C0E0D0E0309711F16C
:102E70004081518148175907C0F04817590761F43C
:102E800082819381209719F09B838A832BC0909332
:102E900049038093480326C02115310519F04217D4
:102EA000530718F49A01BE01DF01EF010280F3819C
:102EB000E02DDCCF2115310509F1281B390B243019
:102EC000310590F412968D919C91139761157105BF
:102ED00021F0FB019383828304C090934903809384
:102EE0004803FD01329644C0FD01E20FF31F8193B8
:102EF0009193225031092D933C933AC0209146037F
:102F000030914703232B41F42091020130910301BA
:102F10003093470320934603209100013091010133
:102F20002115310541F42DB73EB740910401509170
:102F30000501241B350BE0914603F0914703E2178E
:102F4000F307A0F42E1B3F0B2817390778F0AC01CC
:102F50004E5F5F4F2417350748F04E0F5F1F5093A9
:102F60004703409346038193919302C0E0E0F0E071
:102F7000CF01DF91CF9108950F931F93CF93DF93EC
:102F8000009709F48CC0FC013297138212820091E1
:102F90004803109149030115110581F42081318105
:102FA000820F931F2091460330914703281739075A
:102FB00079F5F0934703E093460371C0D80140E0F0
:102FC00050E0AE17BF0750F412962D913C91139725
:102FD000AD012115310509F1D901F3CF9D01DA01C8
:102FE0003383228360817181860F971F8217930735
:102FF00069F4EC0128813981260F371F2E5F3F4F7E
:10300000318320838A819B8193838283452B29F49A
:10301000F0934903E093480342C01396FC93EE9368
:103020001297ED01499159919E01240F351FE21726
:10303000F30771F480819181840F951F0296119698
:103040009C938E938281938113969C938E93129777
:10305000E0E0F0E0D80112968D919C9113970097D3
:1030600019F0F8018C01F6CF8D919C9198012E5F9B
:103070003F4F820F931F209146033091470328173B
:10308000390769F4309729F41092490310924803E4
:1030900002C0138212821093470300934603DF910C
:1030A000CF911F910F91089581E090E0F8940C94D6
:0630B0005918F894FFCF4F
:1030B60000004A03800028FF7AC4B117045B28FF8A
:1030C60000C2B1170482000000008909EA0400006A
:1030D60000003D077A0390048F04000000002105DC
:1030E6009D0700000000F305EA04000000000D043F
:1030F6007A03A5035404D603B403C80300000000F2
:10310600D904C5049004810488048504820400005F
:103116000000830C7A0390048F040D0A0054656D39
:103126007065726174757265204D6F6B72793A20A5
:1031360000202A430054656D70657261747572656E
:10314600205379686F693A200048756D696469741F
:10315600792064796E3A20200048756D6964697437
:103166007920737461743A2020002054656D703A9A
:10317600200020432020200048756D696469747919
:103186003A200020252020202000203A20005365E8
:103196006E736F7273206E6F7420666F756E642126
:0E31A600006E616E00696E66006F7666000056
:00000001FF
